
module.exports.rawTransactions = {
    noOpReturn:{
      "txid": "5a8d8aebf733ec280d86787927eb76db2fc7381e13ca85422cfee94297f6f551",
      "hash": "f3e1bfc91e87699cd387d237ceb7d6cbf82c60acb8f54739352ee682bee985cd",
      "version": 2,
      "size": 395,
      "vsize": 233,
      "weight": 932,
      "locktime": 1583900,
      "vin": [
        {
          "txid": "64b0316459454ab62dcde47df558f81305e2e33bae2a8f6b9b803ae1b84b3a4f",
          "vout": 0,
          "scriptSig": {
            "asm": "",
            "hex": ""
          },
          "txinwitness": [
            "3044022018e9fbe03f7d4c12fd42263cd48fbf9e4e2e029031ddba092373b45bb0e547b4022041662b62bbf3f8fecee729513f4d3ad3f79000baa197e5794f8ab56497af603a01",
            "028ea940f2cffc5c924c991b56aed155386ef9af7ea6a537634bac47f31e0d7fb9"
          ],
          "sequence": 4294967294
        },
        {
          "txid": "174a8ded480bc8de8af7d76a64f636cbb370ad8e42e6e7b7b6e284648542b108",
          "vout": 1,
          "scriptSig": {
            "asm": "00140414833e4405e7da83a6cd2f356e7c3ec3ac0537",
            "hex": "1600140414833e4405e7da83a6cd2f356e7c3ec3ac0537"
          },
          "txinwitness": [
            "304402202b9f02518694bc95b4d1e960173917a028e9dc742efc0a909244cb910d2f631a0220671416f8b2f430cc69efefe681fa8806552e3b34426c145d39a4a0d09f65ce4301",
            "03353e471a155a144bd5c589805902ffdd1ad6448f7be4e16d21bf088816231b3c"
          ],
          "sequence": 4294967294
        }
      ],
      "vout": [
        {
          "value": 0.01642358,
          "n": 0,
          "scriptPubKey": {
            "asm": "OP_HASH160 80e6aa18f40dd4d2ba78dd5bb1a0554ceaa72ddf OP_EQUAL",
            "hex": "a91480e6aa18f40dd4d2ba78dd5bb1a0554ceaa72ddf87",
            "reqSigs": 1,
            "type": "scripthash",
            "addresses": [
              "2N4znogfhJ7t7JPCiqmpuxFcMn2rjtS9vsC"
            ]
          }
        },
        {
          "value": 0.01000000,
          "n": 1,
          "scriptPubKey": {
            "asm": "OP_HASH160 045ffd330e4f26ebf47bd3e16552d2d04325b7fb OP_EQUAL",
            "hex": "a914045ffd330e4f26ebf47bd3e16552d2d04325b7fb87",
            "reqSigs": 1,
            "type": "scripthash",
            "addresses": [
              "2MseMgVGF9kgVzpzMwP81e2qRpfoTTE2k6z"
            ]
          }
        }
      ],
      "hex": "020000000001024f3a4bb8e13a809b6b8f2aae3be3e20513f858f57de4cd2db64a45596431b0640000000000feffffff08b142856484e2b6b7e7e6428ead70b3cb36f6646ad7f78adec80b48ed8d4a1701000000171600140414833e4405e7da83a6cd2f356e7c3ec3ac0537feffffff02760f19000000000017a91480e6aa18f40dd4d2ba78dd5bb1a0554ceaa72ddf8740420f000000000017a914045ffd330e4f26ebf47bd3e16552d2d04325b7fb8702473044022018e9fbe03f7d4c12fd42263cd48fbf9e4e2e029031ddba092373b45bb0e547b4022041662b62bbf3f8fecee729513f4d3ad3f79000baa197e5794f8ab56497af603a0121028ea940f2cffc5c924c991b56aed155386ef9af7ea6a537634bac47f31e0d7fb90247304402202b9f02518694bc95b4d1e960173917a028e9dc742efc0a909244cb910d2f631a0220671416f8b2f430cc69efefe681fa8806552e3b34426c145d39a4a0d09f65ce43012103353e471a155a144bd5c589805902ffdd1ad6448f7be4e16d21bf088816231b3c1c2b1800",
      "blockhash": "00000000000c0311be97e9097cb0e43c8f9af94ec30774ca9e93064b813ccbdb",
      "confirmations": 325,
      "time": 1571938435,
      "blocktime": 1571938435
    },
    opReturnPos0:{
      "txid": "842c5d149b7654eee9fea29166f06493f201ccff98d78fe84770b325ea958e8b",
      "hash": "842c5d149b7654eee9fea29166f06493f201ccff98d78fe84770b325ea958e8b",
      "version": 1,
      "size": 283,
      "vsize": 283,
      "weight": 1132,
      "locktime": 0,
      "vin": [
        {
          "txid": "cd3d290e15cb1bb27a787d5fa698efc5dd75553d6c64d1e6b1412e67f6ea34cb",
          "vout": 0,
          "scriptSig": {
            "asm": "3044022043025f3b127f4a7b29db3303063513a063ae954fcca8e3a35b73070bce903391022066e1d75bec3f0706397768179b017c8d606e0a8976a63560b6e082c1e18c8a51[ALL] 03d78146bfab6d124f67c1e5aad77bdef20c4fd1f4f582c7281ef8e921da9d9347",
            "hex": "473044022043025f3b127f4a7b29db3303063513a063ae954fcca8e3a35b73070bce903391022066e1d75bec3f0706397768179b017c8d606e0a8976a63560b6e082c1e18c8a51012103d78146bfab6d124f67c1e5aad77bdef20c4fd1f4f582c7281ef8e921da9d9347"
          },
          "sequence": 4294967295
        }
      ],
      "vout": [
        {
          "value": 0.00000000,
          "n": 0,
          "scriptPubKey": {
            "asm": "OP_RETURN 00007ef90002d6fd40ea98dcdfb778828790c15871ac99037a955dec18133fa3d43b30b8eaa3721e5f1994055bd7afc40a48a4e95db5ba470405f5e15ee6a9ccaefe9f1def97e3b8b2fd70ac171c8ec8",
            "hex": "6a4c5000007ef90002d6fd40ea98dcdfb778828790c15871ac99037a955dec18133fa3d43b30b8eaa3721e5f1994055bd7afc40a48a4e95db5ba470405f5e15ee6a9ccaefe9f1def97e3b8b2fd70ac171c8ec8",
            "type": "nulldata"
          }
        },
        {
          "value": 0.00078340,
          "n": 1,
          "scriptPubKey": {
            "asm": "OP_DUP OP_HASH160 5d55240f89e27331a9eb598cdc9273bfc7e65e3f OP_EQUALVERIFY OP_CHECKSIG",
            "hex": "76a9145d55240f89e27331a9eb598cdc9273bfc7e65e3f88ac",
            "reqSigs": 1,
            "type": "pubkeyhash",
            "addresses": [
              "mp2T8atPTiMMhLhX1T7nGka8vKPogQD9aY"
            ]
          }
        }
      ],
      "hex": "0100000001cb34eaf6672e41b1e6d1646c3d5575ddc5ef98a65f7d787ab21bcb150e293dcd000000006a473044022043025f3b127f4a7b29db3303063513a063ae954fcca8e3a35b73070bce903391022066e1d75bec3f0706397768179b017c8d606e0a8976a63560b6e082c1e18c8a51012103d78146bfab6d124f67c1e5aad77bdef20c4fd1f4f582c7281ef8e921da9d9347ffffffff020000000000000000536a4c5000007ef90002d6fd40ea98dcdfb778828790c15871ac99037a955dec18133fa3d43b30b8eaa3721e5f1994055bd7afc40a48a4e95db5ba470405f5e15ee6a9ccaefe9f1def97e3b8b2fd70ac171c8ec804320100000000001976a9145d55240f89e27331a9eb598cdc9273bfc7e65e3f88ac00000000",
      "blockhash": "000000000023f7b36f8221136d1d52724831f236ad6bf5b8f6893f8281dc339c",
      "confirmations": 74,
      "time": 1572191156,
      "blocktime": 1572191156
    },
    opReturnPos1: {
      "txid": "61c07a5cbbf4cb97288d5a719b5b371d32022d94c7207aa53374d68c47df5614",
      "hash": "9a81667ac3d3950e151af53befbfe2680da1d0cfd31cf0080999b343212bd208",
      "version": 1,
      "size": 214,
      "vsize": 187,
      "weight": 748,
      "locktime": 0,
      "vin": [
        {
          "coinbase": "031e2b1800047de0b15d047c67f51d0c303d7f5d3609020000000000132f6d696e65642062792064657620706f6f6c2f",
          "sequence": 4294967295
        }
      ],
      "vout": [
        {
          "value": 0.40203618,
          "n": 0,
          "scriptPubKey": {
            "asm": "OP_HASH160 a30c149c2c5bd53ef9410c86b05c1374ca3b2841 OP_EQUAL",
            "hex": "a914a30c149c2c5bd53ef9410c86b05c1374ca3b284187",
            "reqSigs": 1,
            "type": "scripthash",
            "addresses": [
              "2N87LbvMZi6sECrLdNBhKAPY5QB4HVjkenU"
            ]
          }
        },
        {
          "value": 0.00000000,
          "n": 1,
          "scriptPubKey": {
            "asm": "OP_RETURN aa21a9edf27ff9095c0c36e0141a32dc503640ac1bf3e06c83ba0f94a4ceed9c0da4c5d7",
            "hex": "6a24aa21a9edf27ff9095c0c36e0141a32dc503640ac1bf3e06c83ba0f94a4ceed9c0da4c5d7",
            "type": "nulldata"
          }
        }
      ],
      "hex": "010000000001010000000000000000000000000000000000000000000000000000000000000000ffffffff30031e2b1800047de0b15d047c67f51d0c303d7f5d3609020000000000132f6d696e65642062792064657620706f6f6c2fffffffff02627565020000000017a914a30c149c2c5bd53ef9410c86b05c1374ca3b2841870000000000000000266a24aa21a9edf27ff9095c0c36e0141a32dc503640ac1bf3e06c83ba0f94a4ceed9c0da4c5d70120000000000000000000000000000000000000000000000000000000000000000000000000",
      "blockhash": "00000000000c0311be97e9097cb0e43c8f9af94ec30774ca9e93064b813ccbdb",
      "confirmations": 325,
      "time": 1571938435,
      "blocktime": 1571938435
    }
}
    
    